:100000000C9463000C948B000C948B000C948B006C
:100010000C948B000C948B000C948B000C9461045A
:100020000C948B000C948B000C948B000C948B0024
:100030000C948B000C948B000C948B000C948B0014
:100040000C9417040C948B000C948B000C948B0074
:100050000C948B000C948B000C948B000C948B00F4
:100060000C948B000C948B000000000023002600F1
:1000700029000200000000240027002A00000000E0
:1000800000250028002B00040404040404040402D6
:100090000202020202030303030303010204081025
:1000A00020408001020408102001020408102000F2
:1000B0000000080002010000030407000000000027
:1000C000000000006C0811241FBECFEFD8E0DEBF97
:1000D000CDBF11E0A0E0B1E0ECE5F6E102C0059093
:1000E0000D92AA36B107D9F721E0AAE6B1E001C026
:1000F0001D92A63AB207E1F710E0C3E6D0E004C0D3
:100100002197FE010E94260BC236D107C9F70E9433
:10011000BD040C942C0B0C9400008230910538F037
:10012000880F991F880F991F05970197F1F7089578
:10013000833081F028F4813099F08230A9F008955D
:100140008730A9F08830C9F08430B1F48091800004
:100150008F7D03C0809180008F7780938000089509
:1001600084B58F7784BD089584B58F7DFBCF809152
:10017000B0008F778093B00008958091B0008F7D9C
:10018000F9CF1F93CF93DF93282F30E0F901E1558A
:10019000FF4F8491F901E556FF4FD491F901E957DA
:1001A000FF4FC491CC23A9F0162F81110E94980013
:1001B000EC2FF0E0EE0FFF1FE358FF4FA591B49135
:1001C0008FB7F894EC91111108C0D095DE23DC9321
:1001D0008FBFDF91CF911F910895DE2BF8CFCF9382
:1001E000DF9390E0FC01E556FF4F249189579F4F24
:1001F000FC0184918823D1F090E0880F991FFC01C5
:10020000ED58FF4FA591B491FC01E358FF4FC59104
:10021000D491623071F49FB7F8943C91822F80950D
:1002200083238C93E8812E2B28839FBFDF91CF916E
:1002300008958FB7F894EC912E2B2C938FBFF6CFA7
:100240008E50806480937C0080917A0080648093DB
:100250007A0080917A0086FDFCCF809178009091A1
:10026000790008953FB7F89480918A0190918B01AD
:10027000A0918C01B0918D0126B5A89B05C02F3FA0
:1002800019F00196A11DB11D3FBFBA2FA92F982FBC
:100290008827BC01CD01620F711D811D911D42E0B7
:1002A000660F771F881F991F4A95D1F708958F927F
:1002B0009F92AF92BF92CF92DF92EF92FF924B014B
:1002C0005C010E9432016B017C010E9432016C19B9
:1002D0007D098E099F09683E734081059105A8F349
:1002E00021E0821A9108A108B10888EEC80E83E0C7
:1002F000D81EE11CF11C81149104A104B10429F75A
:10030000FF90EF90DF90CF90BF90AF909F908F9035
:1003100008959091130189130BC0E2E7F0E0E49196
:100320009FEF90931301E13049F028F0E23061F043
:1003300060E00C94C10010926E00FACF90916F00B3
:100340009D7F90936F00F4CF909170009D7F90936C
:10035000700091E09093B0009091B100987F94600C
:100360009093B1001092B300E3CFAF92BF92CF92BF
:10037000DF92EF92FF920F931F93CF93DF936C0165
:100380007B018B01040F151FEB015E01AE18BF0846
:10039000C017D10759F06991D601ED91FC910190F8
:1003A000F081E02DC6010995892B79F7C501DF9110
:1003B000CF911F910F91FF90EF90DF90CF90BF9062
:1003C000AF900895089590E080E008954F925F9275
:1003D0006F927F928F929F92AF92BF92CF92DF9255
:1003E000EF92FF92CF93DF9300D000D0CDB7DEB76E
:1003F00020E530E00197E9F42091000130910101FE
:1004000021153105B1F460E083E00F900F900F905B
:100410000F90DF91CF91FF90EF90DF90CF90BF9042
:10042000AF909F908F907F906F905F904F900C94C3
:10043000C1007B01A8E6BCEF0E94170B24E630E068
:1004400040E050E00E948B0829013A0188EE480EF6
:1004500083E0581E611C711C28EE33E0D7010E9416
:100460001F0B69837A838B839C834201880C991CC0
:10047000092C000CAA08BB08C12CD12C760161E024
:1004800083E00E94C100C2010E948D0060E083E011
:100490000E94C100C2010E948D00C80CD91CEA1C38
:1004A000FB1C89819A81AB81BC81C816D906EA06FA
:1004B000FB062CF30F900F900F900F90DF91CF91D0
:1004C000FF90EF90DF90CF90BF90AF909F908F9074
:1004D0007F906F905F904F900895FC0101900020F5
:1004E000E9F73197AF01481B590BBC018EE891E049
:1004F0000C94B5018F929F92AF92BF920F931F936E
:10050000CF93DF93CDB7DEB7A1970FB6F894DEBFD8
:100510000FBECDBF19A2423008F44AE08E010F5D34
:100520001F4F842E912CB12CA12CA50194010E9467
:10053000AA08E62FB901CA01EA30F4F4E05DD80157
:10054000EE938D01232B242B252B79F790E080E06F
:10055000109719F0CD010E946D02A1960FB6F89484
:10056000DEBF0FBECDBFDF91CF911F910F91BF9026
:10057000AF909F908F900895E95CE1CFCF93DF9388
:10058000EC0160E08E810E94C10061E08E810E94DA
:10059000C10060E08E810E94C1008BE891E001976C
:1005A000F1F7DF91CF910895CF92DF92EF92FF9212
:1005B0000F931F93CF93DF936C017C0187E0E80ECC
:1005C000F11CD0E0C0E0062F10E0B8010C2E02C0F4
:1005D000759567950A94E2F76170F70181917F0143
:1005E0000E94C1002196C430D10579F7C601DF9180
:1005F000CF911F910F91FF90EF90DF90CF900C94CF
:10060000BE02CF92DF92EF92FF920F931F93CF9390
:10061000DF93EC01F62E642F8C810E94C1008D8146
:100620008F3F19F060E00E94C1000F2D10E08F8510
:1006300084FF25C06E0187E0C80ED11CF12CE12C8F
:10064000B8010E2C02C0759567950A94E2F76170A7
:10065000F60181916F010E94C100FFEFEF1AFF0ABE
:1006600088E0E816F10461F7CE01DF91CF911F9188
:100670000F91FF90EF90DF90CF900C94BE02B801E5
:1006800084E0759567958A95E1F7CE010E94D402C2
:100690006F2DCE01DF91CF911F910F91FF90EF90C1
:1006A000DF90CF900C94D40240E0682F8EE891E068
:1006B0000C94010381E00E9454038BE39FE10197B6
:1006C000F1F70895CF93DF93623029F490919D0163
:1006D000986090939D016093A1011092A20190E413
:1006E0009093A3018093A401805C8093A50161E0B5
:1006F000809192010E94EF00809193018F3F19F049
:1007000061E00E94EF0061E0809194010E94EF009F
:10071000CEE8D1E09E012E58314080919D0184FDAC
:100720000BC084E090E021962817390744F461E07B
:100730008E810E94EF00EECF88E090E0F4CF8BE353
:100740009DE00197F1F760E0809192010E94C10065
:1007500060E0809194010E94C100809193018F3FDD
:1007600019F060E00E94C10080919D0184FD34C0B9
:1007700063E08EE891E00E94D402CBE4D6E4CE019F
:100780000197F1F763E08EE891E00E94D40221978F
:10079000F1F763E08EE891E00E94D40283E592E0F5
:1007A0000197F1F762E08EE891E00E94D402809117
:1007B0009D0180620E94540384E080939E018CE03E
:1007C0000E9454030E945A0382E080939F0186E0B6
:1007D000DF91CF910C94540380620E9454038BE408
:1007E00096E40197F1F780919D0180620E94540385
:1007F00083E592E00197F1F780919D0180620E946C
:100800005403D5CF9091A101691710F06FEF690FD4
:10081000E62FF0E0E257FE4F9489890F80680C9430
:10082000540341E00E94010381E090E008951F928B
:100830000F920FB60F9211242F933F938F939F9394
:10084000AF93BF938091860190918701A091880119
:10085000B09189013091850123E0230F2D3758F5A0
:100860000196A11DB11D209385018093860190936F
:100870008701A0938801B093890180918A019091AA
:100880008B01A0918C01B0918D010196A11DB11D2C
:1008900080938A0190938B01A0938C01B0938D017A
:1008A000BF91AF919F918F913F912F910F900FBE6C
:1008B0000F901F90189526E8230F0296A11DB11DD9
:1008C000D2CF1F920F920FB60F9211242F933F9306
:1008D0004F935F936F937F938F939F93AF93BF9348
:1008E000EF93FF938091730190917401A091750132
:1008F000B0917601892B8A2B8B2BD1F190916E01CF
:10090000E0916F01F091700180818927808380914F
:10091000730190917401A0917501B0917601181640
:1009200019061A061B069CF48091730190917401BC
:10093000A0917501B09176010197A109B109809349
:10094000730190937401A0937501B0937601FF91A8
:10095000EF91BF91AF919F918F917F916F915F9137
:100960004F913F912F910F900FBE0F901F901895B0
:10097000809113010E948901EACFCF93DF93CDB715
:10098000DEB728970FB6F894DEBF0FBECDBF7894C0
:1009900084B5826084BD84B5816084BD85B5826084
:1009A00085BD85B5816085BD80916E008160809335
:1009B0006E0010928100809181008260809381009E
:1009C00080918100816080938100809180008160AE
:1009D000809380008091B10084608093B100809109
:1009E000B00081608093B00080917A008460809331
:1009F0007A0080917A00826080937A0080917A00F8
:100A0000816080937A0080917A00806880937A0078
:100A10001092C10061E083E00E94EF0061E084E099
:100A20000E94EF0062E082E00E94EF0062E088E056
:100A30000E94620380E40E9454030AE011E072E124
:100A4000E72E71E0F72EF80161918F018EE891E0B9
:100A50000E941104E016F106B1F780E50E945403EC
:100A600002E011E06AE0E62E61E0F62EF801619105
:100A70008F018EE891E00E941104E016F106B1F7B3
:100A80000E945A0388E0E4E1F1E0DE011196019052
:100A90000D928A95E1F78E010F5F1F4FF12C0E9496
:100AA0005A0360E08F2D0E94020488E291E00E94C8
:100AB0006D02F801819191918F01909301018093D2
:100AC000000168E770E081E090E00E94E60168ECD8
:100AD00070E080E090E00E945701F394F3E0FF1291
:100AE000DECF8AE590E0909301018093000168EEEB
:100AF00073E080E090E00E94570161E083E00E9493
:100B000002048DE291E00E946D0266E970E081E0EE
:100B100090E00E94E60164EF71E080E090E00E94C6
:100B2000570103E010E080919E018B7F80939E012E
:100B300088600E9454036CE271E080E090E00E94C3
:100B4000570180919E01982F946090939E018C6034
:100B50000E94540366E970E081E090E00E94E601A3
:100B60006CE271E080E090E00E94570101501109B1
:100B7000D1F60E945A034EE9242E40E0342E8824F8
:100B80008A94982C5401E1EBF0E08491EDE9F0E0D7
:100B90000491E9E8F0E014911111A2C080911201D2
:100BA000882309F447C02FB7F8948091860190916B
:100BB0008701A0918801B09189012FBF40916A01FE
:100BC00050916B0160916C0170916D01841B950BCC
:100BD000A60BB70B8B3F9105A105B10558F183E03A
:100BE0000E94890162E370E082E090E00E94E601E9
:100BF00080918301909184010196823091050CF0DF
:100C000080C090938401809383010E945A032FB780
:100C1000F8948091860190918701A0918801B0910C
:100C200089012FBF80936A0190936B01A0936C019F
:100C3000B0936D0180E080931201809183019091C7
:100C40008401019709F01FC160E080E00E94020466
:100C500080E391E00E946D0280E10E9420018C01FE
:100C600061E080E00E94020462E08EE891E00E9470
:100C70001104023C11400CF0FAC08BE391E00E9499
:100C80006D0261E084E00E94C10080911301833015
:100C900009F03CC0E2E7F0E0149117FDD8C061E034
:100CA00083E00E94EF00112309F4A2C0123009F082
:100CB000B3C08091B100887F83608093B1008BE5E1
:100CC0008093B3008092730190927401A092750199
:100CD000B092760180917000826080937000B7C0FE
:100CE00081110E949800E12FF0E0EE0FFF1FE859FC
:100CF000FF4FA591B4918C91082309F44FCF81E067
:100D00009ACF10928401109283017FCF8F3F09F018
:100D10009EC083E080931301E2E7F0E014911F3F4F
:100D200009F495C0113021F150F0123009F43EC0A1
:100D300017FD8DC061E083E00E94EF00B7CF14BCC7
:100D400015BC84B5826084BD85B5816085BDEAE847
:100D5000F0E08491E82FF0E0EE0FFF1FE358FF4F23
:100D600085919491F10184918093720110E097CF65
:100D700010928000109281008091810088608093A1
:100D8000810080918100816080938100EAE8F0E039
:100D90008491E82FF0E0EE0FFF1FE358FF4F85919D
:100DA0009491F10184918093710179CF1092B000F8
:100DB0001092B1008091B00082608093B000809169
:100DC000B10081608093B100EAE8F0E08491E82FFF
:100DD000F0E0EE0FFF1FE358FF4F85919491909341
:100DE000700180936F01F101849180936E0157CF60
:100DF00085B5887F836085BD8DE287BD80927B014C
:100E000090927C01A0927D01B0927E0180916E0053
:100E1000826080936E001BC0113009F580918100C3
:100E2000887F81608093810081E99BE090938900B5
:100E3000809388008092770190927801A092790146
:100E4000B0927A0180916F00826080936F0080E0A1
:100E500090E0892B09F497CE0E94000094CE1230C6
:100E600021F01111F4CF81E9C8CF81E929CF84E4C1
:100E700091E00E946D0260E084E00E94C10083E086
:100E80000E948901E4CF83E00E9489012FB7F89482
:100E90008091860190918701A0918801B09189018C
:100EA0002FBF40917F01509180016091810170912D
:100EB0008201841B950BA60BB70B81399140A105CC
:100EC000B10528F260E081E00E9402048DE491E027
:100ED0000E946D0260E084E00E94C10081E10E94F6
:100EE000200124E630E0DC010E941F0B2FEF33E0ED
:100EF00040E050E00E948B08CA01B9010E94F0094D
:100F000020E030E048EC52E40E944D092B013C0106
:100F100004E610E0C12CD12C76018FE00E94200164
:100F2000092E000CAA0BBB0BC80ED91EEA1EFB1E15
:100F30000150110991F7C701B6010E94F00920E0A4
:100F400030E048EC52E40E944D0920E030E040EAF5
:100F500050E40E94A50A20E030EC4FE754E40E94E0
:100F60004D0928EB3EE147E452E40E94A50AA301A3
:100F700092010E94DB086B017C012DEC3CEC4CECF7
:100F80005DE30E94480987FF03C0C12CD12C760184
:100F900061E080E00E94020486E591E00E946D021B
:100FA000A7019601C701B6010E94120B8823E1F048
:100FB00089E591E00E946D0285E691E00E946D0254
:100FC0002FB7F8948091860190918701A0918801B4
:100FD000B09189012FBF80937F0190938001A093EE
:100FE0008101B093820133CF26013701E89477F86D
:100FF0002FEF3FEF4FE75FE7C301B2010E94120BF3
:1010000081110DC02FEF3FEF4FE75FE7C301B20142
:101010000E94480918161CF48DE591E0CBCF2FEF04
:101020003FEF4FE75FE4C701B6010E94A00A181620
:101030001CF481E691E0BECF2FEF3FEF4FE75FEC6E
:10104000C701B6010E94480987FDF3CF20E030E0D8
:10105000A901C701B6010E94480987FF0AC041E003
:101060006DE28EE891E00E940103F7FAF094F7F840
:10107000F0942DEC3CEC4CE45DE3C701B6010E941A
:10108000DC082B013C010E94BF096B017C010E941E
:10109000EE099B01AC01C301B2010E94DB082B01E8
:1010A0003C014AE0C701B6010E947A0241E06EE2CB
:1010B0008EE891E00E94010320E030E040E251E43C
:1010C000C301B2010E94A50A0E94BF0990E080E01E
:1010D0004AE00E947A0270CFEEE8F1E013821282B9
:1010E00080E291E0918380838CE084838FEF85831D
:1010F0008DE0868388E0878387E0808786E081872C
:1011000085E082871386148615861686178661E029
:1011100080E10C946203052E97FB1EF400940E945C
:10112000A20857FD07D00E94AA0807FC03D04EF47E
:101130000C94A20850954095309521953F4F4F4F04
:101140005F4F089590958095709561957F4F8F4F73
:101150009F4F0895A1E21A2EAA1BBB1BFD010DC0D3
:10116000AA1FBB1FEE1FFF1FA217B307E407F50757
:1011700020F0A21BB30BE40BF50B661F771F881F33
:10118000991F1A9469F760957095809590959B01C9
:10119000AC01BD01CF010895A29FB001B39FC00172
:1011A000A39F700D811D1124911DB29F700D811D93
:1011B0001124911D08955058BB27AA270E94F308B7
:1011C0000C94660A0E94580A38F00E945F0A20F0C8
:1011D00039F49F3F19F426F40C94550A0EF4E09567
:1011E000E7FB0C944F0AE92F0E94770A58F3BA17CD
:1011F000620773078407950720F079F4A6F50C942D
:10120000990A0EF4E0950B2EBA2FA02D0B01B9010F
:1012100090010C01CA01A0011124FF27591B99F06C
:10122000593F50F4503E68F11A16F040A22F232F78
:10123000342F4427585FF3CF469537952795A795C8
:10124000F0405395C9F77EF41F16BA0B620B730B6F
:10125000840BBAF09150A1F0FF0FBB1F661F771FE0
:10126000881FC2F70EC0BA0F621F731F841F48F495
:10127000879577956795B795F7959E3F08F0B0CF1E
:101280009395880F08F09927EE0F97958795089505
:101290000E942B0A08F481E008950E9461090C94D1
:1012A000660A0E945F0A58F00E94580A40F029F42A
:1012B0005F3F29F00C944F0A51110C949A0A0C9438
:1012C000550A0E94770A68F39923B1F3552391F3E5
:1012D000951B550BBB27AA2762177307840738F0A5
:1012E0009F5F5F4F220F331F441FAA1FA9F335D002
:1012F0000E2E3AF0E0E832D091505040E695001CB6
:10130000CAF72BD0FE2F29D0660F771F881FBB1F6F
:10131000261737074807AB07B0E809F0BB0B802D4D
:10132000BF01FF2793585F4F3AF09E3F510578F079
:101330000C944F0A0C949A0A5F3FE4F3983ED4F35E
:10134000869577956795B795F7959F5FC9F7880F4D
:10135000911D9695879597F90895E1E0660F771F9F
:10136000881FBB1F621773078407BA0720F0621B30
:10137000730B840BBA0BEE1F88F7E09508950E945B
:101380007F0A88F09F5798F0B92F9927B751B0F08E
:10139000E1F0660F771F881F991F1AF0BA95C9F7F9
:1013A00014C0B13091F00E94990AB1E008950C94F4
:1013B000990A672F782F8827B85F39F0B93FCCF3A7
:1013C000869577956795B395D9F73EF49095809576
:1013D000709561957F4F8F4F9F4F0895E89409C096
:1013E00097FB3EF490958095709561957F4F8F4F58
:1013F0009F4F9923A9F0F92F96E9BB279395F6956E
:10140000879577956795B795F111F8CFFAF4BB0FEB
:1014100011F460FF1BC06F5F7F4F8F4F9F4F16C04F
:10142000882311F096E911C0772321F09EE8872FD9
:10143000762F05C0662371F096E8862F70E060E095
:101440002AF09A95660F771F881FDAF7880F96950E
:10145000879597F90895990F0008550FAA0BE0E8B2
:10146000FEEF16161706E807F907C0F01216130666
:10147000E407F50798F0621B730B840B950B39F4A6
:101480000A2661F0232B242B252B21F408950A260C
:1014900009F4A140A6958FEF811D811D089597F94C
:1014A0009F6780E870E060E008959FEF80EC08950A
:1014B00000240A9416161706180609060895002433
:1014C0000A9412161306140605060895092E0394AD
:1014D000000C11F4882352F0BB0F40F4BF2B11F421
:1014E00060FF04C06F5F7F4F8F4F9F4F089557FD80
:1014F0009058440F551F59F05F3F71F04795880F82
:1015000097FB991F61F09F3F79F087950895121618
:1015100013061406551FF2CF4695F1DF08C01616C4
:1015200017061806991FF1CF869571056105089475
:101530000895E894BB2766277727CB0197F908958C
:101540000E942B0A08F48FEF08950E94B80A0C94A9
:10155000660A0E94580A38F00E945F0A20F095231C
:1015600011F00C944F0A0C94550A11240C949A0A09
:101570000E94770A70F3959FC1F3950F50E0551FB5
:10158000629FF001729FBB27F00DB11D639FAA27D8
:10159000F00DB11DAA1F649F6627B00DA11D661F27
:1015A000829F2227B00DA11D621F739FB00DA11D48
:1015B000621F839FA00D611D221F749F3327A00D02
:1015C000611D231F849F600D211D822F762F6A2F9E
:1015D00011249F5750409AF0F1F088234AF0EE0F03
:1015E000FF1FBB1F661F771F881F91505040A9F730
:1015F0009E3F510580F00C944F0A0C949A0A5F3F6D
:10160000E4F3983ED4F3869577956795B795F7956B
:10161000E7959F5FC1F7FE2B880F911D96958795E3
:1016200097F908950E942B0A880B990B08950E9440
:10163000CC08332312F48A1B9B0B0C94210B0E94C1
:10164000CC08B7FF0895821B930B0895EE0FFF1F80
:0C1650000590F491E02D0994F894FFCF70
:10165C006400001B171F171B00000E1111110A0A42
:10166C001F0001FF64005A003C004B00000000000A
:10167C001104B501E301E2014D4B4954004D320018
:10168C00205445535445523A2020002054686F7220
:10169C006E792000204F50454E20202000564F4C94
:1016AC0054533A202000563A006E616E00696E6603
:0A16BC00006F766600562020200023
:00000001FF
